:020000040000FA
:0400000071EF3EF06E
:107CE2001A6A000114EF3FF00F0EC11294809482C1
:107CF20094941200016EACA281EF3EF083EF3EF04D
:107D02007CEF3EF001C0ADFF1200650E1918D8A439
:107D12008DEF3EF08FEF3EF0A3EF3EF08B841A50D2
:107D22007BEC3EF00A0E036E220E026EA10EE82ECE
:107D3200FED7022EFCD7032EFAD700F01AC08CFF12
:107D4200A4EF3EF08B941200ABB2AAEF3EF0ADEF7F
:107D52003EF0010EAEEF3EF0000E016E026A011C13
:107D6200036E021C046EABB4B9EF3EF0BCEF3EF002
:107D7200010EBDEF3EF0000E056E066A051C076E91
:107D8200061C086E03500716045008160750081008
:107D9200D8A4CEEF3EF0D0EF3EF0DAEF3EF0AB9E4D
:107DA200100E016E940EE82EFED7012EFCD700D0E5
:107DB200AB8EAE501200949C948E0FC005F010C092
:107DC20006F011C007F012C008F0000E016E6C0E32
:107DD200026EDC0E036E020E046E7AEC3FF001C0FE
:107DE20013F002C014F003C015F004C016F013C063
:107DF20001F014C002F015C003F016C004F0400EEA
:107E0200056E000E066E000E076E000E086E7AEC0E
:107E12003FF00104AF6EAC94AC98AB8EAC9CAC8AD4
:107E2200AB9CAB88120075EC3EF0800E0F6E250EF7
:107E3200106E000E116E000E126EDCEC3EF0A5EC20
:107E42003EF0196E040E186E0C0E176E340EE82EEC
:107E5200FED7172EFCD7182EFAD786EC3EF082B04A
:107E620035EF3FF037EF3FF054EF3FF0050E1A6069
:107E72003DEF3FF03FEF3FF054EF3FF0040E186E3E
:107E82000C0E176E340EE82EFED7172EFCD7182EC6
:107E9200FAD782A04FEF3FF051EF3FF04AEF3FF0A9
:107EA2001A2A20EF3FF082B259EF3FF05BEF3FF02A
:107EB20020EF3FF01A50D8B461EF3FF063EF3FF08C
:107EC20020EF3FF0040E186E0C0E176E340EE82EE3
:107ED200FED7172EFCD7182EFAD782A273EF3FF0E7
:107EE20075EF3FF06EEF3FF01A0620EF3FF000EF24
:107EF20000F0000E0A6E08BE83EF3FF081EF3FF004
:107F02008DEF3FF0081E071E061E056C000E0622AE
:107F120007220822010E0A6E04BE94EF3FF092EF90
:107F22003FF09EEF3FF0041E031E021E016C000E86
:107F3200022203220422010E0A1A000E0B6E000E08
:107F42000C6E000E0D6E000E0E6E05500610071020
:107F52000810D8B4AFEF3FF0B1EF3FF0E7EF3FF0DA
:107F6200010E096EBBEF3FF0D89005360636073694
:107F72000836092A08AEC0EF3FF0C2EF3FF0B5EF76
:107F82003FF0D8900B360C360D360E360550015C9C
:107F9200065002580750035808500458D8A0D4EF8E
:107FA2003FF0D6EF3FF0DFEF3FF00550015E0650A5
:107FB200025A0750035A0850045A0B80D8900832CC
:107FC200073206320532092EC2EF3FF00A50D8B40A
:107FD200EDEF3FF0EFEF3FF0F7EF3FF00E1E0D1E1B
:107FE2000C1E0B6C000E0C220D220E220BC001F097
:0E7FF2000CC002F00DC003F00EC004F012002F
:020000040020DA
:08000000FFFFFFFFFFFFFFFF00
:020000040030CA
:0E000000040E181EFF0381FF0FC00FE00F401B
:00000001FF
