:020000040000FA
:0400000007EF00F016
:100008001F826FED01F0ADEF01F0000E0C6E0ABE1D
:1000180012EF00F010EF00F01CEF00F00A1E091EAE
:10002800081E076C000E082209220A22010E0C6E17
:1000380006BE23EF00F021EF00F02DEF00F0061EC2
:10004800051E041E036C000E042205220622010E62
:100058000C1A000E0D6E000E0E6E000E0F6E000EC6
:10006800106E0750081009100A10D8B43EEF00F0BF
:1000780040EF00F076EF00F0010E0B6E4AEF00F053
:10008800D8900736083609360A360B2A0AAE4FEFDB
:1000980000F051EF00F044EF00F0D8900D360E3626
:1000A8000F3610360750035C08500458095005589D
:1000B8000A500658D8A063EF00F065EF00F06EEF25
:1000C80000F00750035E0850045A0950055A0A50B8
:1000D800065A0D80D8900A320932083207320B2EA0
:1000E80051EF00F00C50D8B47CEF00F07EEF00F038
:1000F80086EF00F0101E0F1E0E1E0D6C000E0E2255
:100108000F2210220DC003F00EC004F00FC005F03E
:1001180010C006F01200A3EC01F0B3EC01F0800E61
:10012800116E250E126E000E136E000E146E00EC8A
:1001380001F0650E1D6E010E1C6E5A0E1B6E1C041E
:10014800D8A4A9EF00F0ABEF00F0C9EF00F01B5006
:1001580098EC01F0040E1A6E0C0E196E340EE82E8F
:10016800FED7192EFCD71A2EFAD7000E1C6E1D507A
:1001780098EC01F0040E1A6E0C0E196E340EE82E6F
:10018800FED7192EFCD71A2EFAD738EC01F01E6EBE
:10019800040E1A6E0C0E196E340EE82EFED7192EA8
:1001A800FCD71A2EFAD7050E1E60DDEF00F0DFEF40
:1001B80000F0F3EF00F0650E1D18D8A4E6EF00F08C
:1001C800E8EF00F0ECEF00F01EC089FFA3EF00F0AD
:1001D8001E3AF00E1E161EC08AFFA3EF00F0650E31
:1001E8001D18D8A4FAEF00F0FCEF00F0ECEF00F0D7
:1001F800E8EF00F007EF00F0949C948E11C007F030
:1002080012C008F013C009F014C00AF0000E036E03
:100218006C0E046EDC0E056E020E066E09EC00F024
:1002280003C015F004C016F005C017F006C018F09A
:1002380015C003F016C004F017C005F018C006F08A
:10024800400E076E000E086E000E096E000E0A6E54
:1002580009EC00F00304AF6EAC94AC98AB8EAC9C88
:10026800AC8AAB9CAB881200ABB23DEF01F040EF1B
:1002780001F0010E41EF01F0000E036E046A031C49
:10028800056E041C066EABB44CEF01F04FEF01F0A5
:10029800010E50EF01F0000E076E086A071C096E88
:1002A800081C0A6E0550091606500A1609500A104D
:1002B800D8A461EF01F063EF01F06DEF01F0AB9EA0
:1002C800100E036E940EE82EFED7032EFCD700D036
:1002D800AB8EAE5012000600040E026E0C0E016EBC
:1002E800340EE82EFED7012EFCD7022EFAD781B0A5
:1002F80080EF01F082EF01F07BEF01F0010E1C6E40
:10030800000E1E6E650E1D18D8A48DEF01F08FEF3C
:1003180001F093EF01F0660E1D6E95EF01F0650E8A
:100328001D6EF2921F921100036EACA29EEF01F0B7
:10033800A0EF01F099EF01F003C0ADFF12000F0E1E
:10034800C1129380000E926E000E966E0F0E936E81
:1003580012001E6A1F901F9200018FEF00F0F288B2
:08036800F292F19CF28E1200EA
:020000040020DA
:08000000FFFFFFFFFFFFFFFF00
:020000040030CA
:0E000000040E181EFF0181FF0FC00FE00F401D
:00000001FF
